{
  "contractName": "FigLotto",
  "abi": [
    {
      "constant": true,
      "inputs": [],
      "name": "name",
      "outputs": [
        {
          "name": "",
          "type": "string"
        }
      ],
      "payable": false,
      "stateMutability": "view",
      "type": "function"
    },
    {
      "constant": false,
      "inputs": [
        {
          "name": "_spender",
          "type": "address"
        },
        {
          "name": "_value",
          "type": "uint256"
        }
      ],
      "name": "approve",
      "outputs": [
        {
          "name": "",
          "type": "bool"
        }
      ],
      "payable": false,
      "stateMutability": "nonpayable",
      "type": "function"
    },
    {
      "constant": true,
      "inputs": [],
      "name": "totalSupply",
      "outputs": [
        {
          "name": "",
          "type": "uint256"
        }
      ],
      "payable": false,
      "stateMutability": "view",
      "type": "function"
    },
    {
      "constant": false,
      "inputs": [
        {
          "name": "_from",
          "type": "address"
        },
        {
          "name": "_to",
          "type": "address"
        },
        {
          "name": "_value",
          "type": "uint256"
        }
      ],
      "name": "transferFrom",
      "outputs": [
        {
          "name": "",
          "type": "bool"
        }
      ],
      "payable": false,
      "stateMutability": "nonpayable",
      "type": "function"
    },
    {
      "constant": true,
      "inputs": [],
      "name": "INITIAL_SUPPLY",
      "outputs": [
        {
          "name": "",
          "type": "uint256"
        }
      ],
      "payable": false,
      "stateMutability": "view",
      "type": "function"
    },
    {
      "constant": true,
      "inputs": [],
      "name": "decimals",
      "outputs": [
        {
          "name": "",
          "type": "uint8"
        }
      ],
      "payable": false,
      "stateMutability": "view",
      "type": "function"
    },
    {
      "constant": false,
      "inputs": [
        {
          "name": "_spender",
          "type": "address"
        },
        {
          "name": "_subtractedValue",
          "type": "uint256"
        }
      ],
      "name": "decreaseApproval",
      "outputs": [
        {
          "name": "",
          "type": "bool"
        }
      ],
      "payable": false,
      "stateMutability": "nonpayable",
      "type": "function"
    },
    {
      "constant": true,
      "inputs": [
        {
          "name": "_owner",
          "type": "address"
        }
      ],
      "name": "balanceOf",
      "outputs": [
        {
          "name": "balance",
          "type": "uint256"
        }
      ],
      "payable": false,
      "stateMutability": "view",
      "type": "function"
    },
    {
      "constant": true,
      "inputs": [
        {
          "name": "",
          "type": "address"
        }
      ],
      "name": "wallets",
      "outputs": [
        {
          "name": "balance",
          "type": "uint256"
        },
        {
          "name": "name",
          "type": "string"
        }
      ],
      "payable": false,
      "stateMutability": "view",
      "type": "function"
    },
    {
      "constant": true,
      "inputs": [],
      "name": "symbol",
      "outputs": [
        {
          "name": "",
          "type": "string"
        }
      ],
      "payable": false,
      "stateMutability": "view",
      "type": "function"
    },
    {
      "constant": false,
      "inputs": [
        {
          "name": "_to",
          "type": "address"
        },
        {
          "name": "_value",
          "type": "uint256"
        }
      ],
      "name": "transfer",
      "outputs": [
        {
          "name": "",
          "type": "bool"
        }
      ],
      "payable": false,
      "stateMutability": "nonpayable",
      "type": "function"
    },
    {
      "constant": true,
      "inputs": [
        {
          "name": "",
          "type": "address"
        }
      ],
      "name": "playerbets",
      "outputs": [
        {
          "name": "",
          "type": "int256"
        }
      ],
      "payable": false,
      "stateMutability": "view",
      "type": "function"
    },
    {
      "constant": false,
      "inputs": [
        {
          "name": "_spender",
          "type": "address"
        },
        {
          "name": "_addedValue",
          "type": "uint256"
        }
      ],
      "name": "increaseApproval",
      "outputs": [
        {
          "name": "",
          "type": "bool"
        }
      ],
      "payable": false,
      "stateMutability": "nonpayable",
      "type": "function"
    },
    {
      "constant": true,
      "inputs": [
        {
          "name": "",
          "type": "address"
        },
        {
          "name": "",
          "type": "int256"
        }
      ],
      "name": "bets",
      "outputs": [
        {
          "name": "id",
          "type": "int256"
        },
        {
          "name": "value",
          "type": "uint256"
        },
        {
          "name": "numbers",
          "type": "uint24"
        },
        {
          "name": "blockNum",
          "type": "uint256"
        },
        {
          "name": "drawingHash",
          "type": "uint24"
        },
        {
          "name": "winnings",
          "type": "uint256"
        }
      ],
      "payable": false,
      "stateMutability": "view",
      "type": "function"
    },
    {
      "constant": true,
      "inputs": [
        {
          "name": "_owner",
          "type": "address"
        },
        {
          "name": "_spender",
          "type": "address"
        }
      ],
      "name": "allowance",
      "outputs": [
        {
          "name": "",
          "type": "uint256"
        }
      ],
      "payable": false,
      "stateMutability": "view",
      "type": "function"
    },
    {
      "inputs": [],
      "payable": false,
      "stateMutability": "nonpayable",
      "type": "constructor"
    },
    {
      "anonymous": false,
      "inputs": [
        {
          "indexed": true,
          "name": "owner",
          "type": "address"
        },
        {
          "indexed": true,
          "name": "spender",
          "type": "address"
        },
        {
          "indexed": false,
          "name": "value",
          "type": "uint256"
        }
      ],
      "name": "Approval",
      "type": "event"
    },
    {
      "anonymous": false,
      "inputs": [
        {
          "indexed": true,
          "name": "from",
          "type": "address"
        },
        {
          "indexed": true,
          "name": "to",
          "type": "address"
        },
        {
          "indexed": false,
          "name": "value",
          "type": "uint256"
        }
      ],
      "name": "Transfer",
      "type": "event"
    },
    {
      "constant": false,
      "inputs": [
        {
          "name": "_value",
          "type": "uint256"
        },
        {
          "name": "_numbers",
          "type": "uint256"
        }
      ],
      "name": "bet",
      "outputs": [],
      "payable": false,
      "stateMutability": "nonpayable",
      "type": "function"
    },
    {
      "constant": false,
      "inputs": [
        {
          "name": "_who",
          "type": "address"
        }
      ],
      "name": "won",
      "outputs": [],
      "payable": false,
      "stateMutability": "nonpayable",
      "type": "function"
    }
  ],
  "bytecode": "0x606060405234156200001057600080fd5b621e8480600181905550621e84806000803373ffffffffffffffffffffffffffffffffffffffff1673ffffffffffffffffffffffffffffffffffffffff168152602001908152602001600020819055503373ffffffffffffffffffffffffffffffffffffffff1660007fddf252ad1be2c89b69c2b068fc378daa952ba7f163c4a11628f55a4df523b3ef621e84806040518082815260200191505060405180910390a36040805190810160405280621e848081526020016040805190810160405280600581526020017f61646d696e000000000000000000000000000000000000000000000000000000815250815250600360003373ffffffffffffffffffffffffffffffffffffffff1673ffffffffffffffffffffffffffffffffffffffff1681526020019081526020016000206000820151816000015560208201518160010190805190602001906200016792919062000171565b5090505062000220565b828054600181600116156101000203166002900490600052602060002090601f016020900481019282601f10620001b457805160ff1916838001178555620001e5565b82800160010185558215620001e5579182015b82811115620001e4578251825591602001919060010190620001c7565b5b509050620001f49190620001f8565b5090565b6200021d91905b8082111562000219576000816000905550600101620001ff565b5090565b90565b611e1f80620002306000396000f3006060604052600436106100f1576000357c0100000000000000000000000000000000000000000000000000000000900463ffffffff16806306fdde03146100f6578063095ea7b31461018457806318160ddd146101de57806323b872dd146102075780632ff2e9dc14610280578063313ce567146102a957806366188463146102d85780636ffcc7191461033257806370a082311461035e57806371ee1aba146103ab57806389b08f11146103e457806395d89b41146104ba578063a9059cbb14610548578063c57e2f03146105a2578063d73dd623146105ef578063d7967aa314610649578063dd62ed3e146106d6575b600080fd5b341561010157600080fd5b610109610742565b6040518080602001828103825283818151815260200191508051906020019080838360005b8381101561014957808201518184015260208101905061012e565b50505050905090810190601f1680156101765780820380516001836020036101000a031916815260200191505b509250505060405180910390f35b341561018f57600080fd5b6101c4600480803573ffffffffffffffffffffffffffffffffffffffff1690602001909190803590602001909190505061077b565b604051808215151515815260200191505060405180910390f35b34156101e957600080fd5b6101f161086d565b6040518082815260200191505060405180910390f35b341561021257600080fd5b610266600480803573ffffffffffffffffffffffffffffffffffffffff1690602001909190803573ffffffffffffffffffffffffffffffffffffffff16906020019091908035906020019091905050610877565b604051808215151515815260200191505060405180910390f35b341561028b57600080fd5b610293610c31565b6040518082815260200191505060405180910390f35b34156102b457600080fd5b6102bc610c38565b604051808260ff1660ff16815260200191505060405180910390f35b34156102e357600080fd5b610318600480803573ffffffffffffffffffffffffffffffffffffffff16906020019091908035906020019091905050610c3d565b604051808215151515815260200191505060405180910390f35b341561033d57600080fd5b61035c6004808035906020019091908035906020019091905050610ece565b005b341561036957600080fd5b610395600480803573ffffffffffffffffffffffffffffffffffffffff169060200190919050506110ee565b6040518082815260200191505060405180910390f35b34156103b657600080fd5b6103e2600480803573ffffffffffffffffffffffffffffffffffffffff16906020019091905050611136565b005b34156103ef57600080fd5b61041b600480803573ffffffffffffffffffffffffffffffffffffffff16906020019091905050611418565b60405180838152602001806020018281038252838181546001816001161561010002031660029004815260200191508054600181600116156101000203166002900480156104aa5780601f1061047f576101008083540402835291602001916104aa565b820191906000526020600020905b81548152906001019060200180831161048d57829003601f168201915b5050935050505060405180910390f35b34156104c557600080fd5b6104cd61143b565b6040518080602001828103825283818151815260200191508051906020019080838360005b8381101561050d5780820151818401526020810190506104f2565b50505050905090810190601f16801561053a5780820380516001836020036101000a031916815260200191505b509250505060405180910390f35b341561055357600080fd5b610588600480803573ffffffffffffffffffffffffffffffffffffffff16906020019091908035906020019091905050611474565b604051808215151515815260200191505060405180910390f35b34156105ad57600080fd5b6105d9600480803573ffffffffffffffffffffffffffffffffffffffff16906020019091905050611693565b6040518082815260200191505060405180910390f35b34156105fa57600080fd5b61062f600480803573ffffffffffffffffffffffffffffffffffffffff169060200190919080359060200190919050506116ab565b604051808215151515815260200191505060405180910390f35b341561065457600080fd5b610689600480803573ffffffffffffffffffffffffffffffffffffffff169060200190919080359060200190919050506118a7565b604051808781526020018681526020018562ffffff1662ffffff1681526020018481526020018362ffffff1662ffffff168152602001828152602001965050505050505060405180910390f35b34156106e157600080fd5b61072c600480803573ffffffffffffffffffffffffffffffffffffffff1690602001909190803573ffffffffffffffffffffffffffffffffffffffff1690602001909190505061190e565b6040518082815260200191505060405180910390f35b6040805190810160405280600881526020017f466967546f6b656e00000000000000000000000000000000000000000000000081525081565b600081600260003373ffffffffffffffffffffffffffffffffffffffff1673ffffffffffffffffffffffffffffffffffffffff16815260200190815260200160002060008573ffffffffffffffffffffffffffffffffffffffff1673ffffffffffffffffffffffffffffffffffffffff168152602001908152602001600020819055508273ffffffffffffffffffffffffffffffffffffffff163373ffffffffffffffffffffffffffffffffffffffff167f8c5be1e5ebec7d5bd14f71427d1e84f3dd0314c0f7b2291e5b200ac8c7c3b925846040518082815260200191505060405180910390a36001905092915050565b6000600154905090565b60008073ffffffffffffffffffffffffffffffffffffffff168373ffffffffffffffffffffffffffffffffffffffff16141515156108b457600080fd5b6000808573ffffffffffffffffffffffffffffffffffffffff1673ffffffffffffffffffffffffffffffffffffffff16815260200190815260200160002054821115151561090157600080fd5b600260008573ffffffffffffffffffffffffffffffffffffffff1673ffffffffffffffffffffffffffffffffffffffff16815260200190815260200160002060003373ffffffffffffffffffffffffffffffffffffffff1673ffffffffffffffffffffffffffffffffffffffff16815260200190815260200160002054821115151561098c57600080fd5b6109dd826000808773ffffffffffffffffffffffffffffffffffffffff1673ffffffffffffffffffffffffffffffffffffffff1681526020019081526020016000205461199590919063ffffffff16565b6000808673ffffffffffffffffffffffffffffffffffffffff1673ffffffffffffffffffffffffffffffffffffffff16815260200190815260200160002081905550610a70826000808673ffffffffffffffffffffffffffffffffffffffff1673ffffffffffffffffffffffffffffffffffffffff168152602001908152602001600020546119ae90919063ffffffff16565b6000808573ffffffffffffffffffffffffffffffffffffffff1673ffffffffffffffffffffffffffffffffffffffff16815260200190815260200160002081905550610b4182600260008773ffffffffffffffffffffffffffffffffffffffff1673ffffffffffffffffffffffffffffffffffffffff16815260200190815260200160002060003373ffffffffffffffffffffffffffffffffffffffff1673ffffffffffffffffffffffffffffffffffffffff1681526020019081526020016000205461199590919063ffffffff16565b600260008673ffffffffffffffffffffffffffffffffffffffff1673ffffffffffffffffffffffffffffffffffffffff16815260200190815260200160002060003373ffffffffffffffffffffffffffffffffffffffff1673ffffffffffffffffffffffffffffffffffffffff168152602001908152602001600020819055508273ffffffffffffffffffffffffffffffffffffffff168473ffffffffffffffffffffffffffffffffffffffff167fddf252ad1be2c89b69c2b068fc378daa952ba7f163c4a11628f55a4df523b3ef846040518082815260200191505060405180910390a3600190509392505050565b621e848081565b600281565b600080600260003373ffffffffffffffffffffffffffffffffffffffff1673ffffffffffffffffffffffffffffffffffffffff16815260200190815260200160002060008573ffffffffffffffffffffffffffffffffffffffff1673ffffffffffffffffffffffffffffffffffffffff16815260200190815260200160002054905080831115610d4e576000600260003373ffffffffffffffffffffffffffffffffffffffff1673ffffffffffffffffffffffffffffffffffffffff16815260200190815260200160002060008673ffffffffffffffffffffffffffffffffffffffff1673ffffffffffffffffffffffffffffffffffffffff16815260200190815260200160002081905550610de2565b610d61838261199590919063ffffffff16565b600260003373ffffffffffffffffffffffffffffffffffffffff1673ffffffffffffffffffffffffffffffffffffffff16815260200190815260200160002060008673ffffffffffffffffffffffffffffffffffffffff1673ffffffffffffffffffffffffffffffffffffffff168152602001908152602001600020819055505b8373ffffffffffffffffffffffffffffffffffffffff163373ffffffffffffffffffffffffffffffffffffffff167f8c5be1e5ebec7d5bd14f71427d1e84f3dd0314c0f7b2291e5b200ac8c7c3b925600260003373ffffffffffffffffffffffffffffffffffffffff1673ffffffffffffffffffffffffffffffffffffffff16815260200190815260200160002060008873ffffffffffffffffffffffffffffffffffffffff1673ffffffffffffffffffffffffffffffffffffffff168152602001908152602001600020546040518082815260200191505060405180910390a3600191505092915050565b600560003373ffffffffffffffffffffffffffffffffffffffff1673ffffffffffffffffffffffffffffffffffffffff1681526020019081526020016000206000815480929190600101919050555060c060405190810160405280600560003373ffffffffffffffffffffffffffffffffffffffff1673ffffffffffffffffffffffffffffffffffffffff1681526020019081526020016000205481526020018381526020018262ffffff168152602001438152602001600062ffffff1681526020016000815250600460003373ffffffffffffffffffffffffffffffffffffffff1673ffffffffffffffffffffffffffffffffffffffff1681526020019081526020016000206000600560003373ffffffffffffffffffffffffffffffffffffffff1673ffffffffffffffffffffffffffffffffffffffff168152602001908152602001600020548152602001908152602001600020600082015181600001556020820151816001015560408201518160020160006101000a81548162ffffff021916908362ffffff1602179055506060820151816003015560808201518160040160006101000a81548162ffffff021916908362ffffff16021790555060a0820151816005015590505081600360003373ffffffffffffffffffffffffffffffffffffffff1673ffffffffffffffffffffffffffffffffffffffff168152602001908152602001600020600001600082825403925050819055505050565b60008060008373ffffffffffffffffffffffffffffffffffffffff1673ffffffffffffffffffffffffffffffffffffffff168152602001908152602001600020549050919050565b6000611140611db2565b6000806000600194505b600560008773ffffffffffffffffffffffffffffffffffffffff1673ffffffffffffffffffffffffffffffffffffffff168152602001908152602001600020548560ff1613151561141057600460008773ffffffffffffffffffffffffffffffffffffffff1673ffffffffffffffffffffffffffffffffffffffff16815260200190815260200160002060008660ff16815260200190815260200160002060c0604051908101604052908160008201548152602001600182015481526020016002820160009054906101000a900462ffffff1662ffffff1662ffffff168152602001600382015481526020016004820160009054906101000a900462ffffff1662ffffff1662ffffff16815260200160058201548152505093506001846060015101406001900492506000600a620f42406305f5e1008681151561128a57fe5b0681151561129457fe5b0481151561129e57fe5b06146112b85762989680838115156112b257fe5b066112cd565b624c4b4062989680848115156112ca57fe5b06015b915083602001516112e28560400151846119cc565b02905080600460008873ffffffffffffffffffffffffffffffffffffffff1673ffffffffffffffffffffffffffffffffffffffff16815260200190815260200160002060008760ff1681526020019081526020016000206005018190555081600460008873ffffffffffffffffffffffffffffffffffffffff1673ffffffffffffffffffffffffffffffffffffffff16815260200190815260200160002060008760ff16815260200190815260200160002060040160006101000a81548162ffffff021916908362ffffff16021790555080600360008873ffffffffffffffffffffffffffffffffffffffff1673ffffffffffffffffffffffffffffffffffffffff16815260200190815260200160002060000160008282540192505081905550848060010195505061114a565b505050505050565b600360205280600052604060002060009150905080600001549080600101905082565b6040805190810160405280600381526020017f464947000000000000000000000000000000000000000000000000000000000081525081565b60008073ffffffffffffffffffffffffffffffffffffffff168373ffffffffffffffffffffffffffffffffffffffff16141515156114b157600080fd5b6000803373ffffffffffffffffffffffffffffffffffffffff1673ffffffffffffffffffffffffffffffffffffffff1681526020019081526020016000205482111515156114fe57600080fd5b61154f826000803373ffffffffffffffffffffffffffffffffffffffff1673ffffffffffffffffffffffffffffffffffffffff1681526020019081526020016000205461199590919063ffffffff16565b6000803373ffffffffffffffffffffffffffffffffffffffff1673ffffffffffffffffffffffffffffffffffffffff168152602001908152602001600020819055506115e2826000808673ffffffffffffffffffffffffffffffffffffffff1673ffffffffffffffffffffffffffffffffffffffff168152602001908152602001600020546119ae90919063ffffffff16565b6000808573ffffffffffffffffffffffffffffffffffffffff1673ffffffffffffffffffffffffffffffffffffffff168152602001908152602001600020819055508273ffffffffffffffffffffffffffffffffffffffff163373ffffffffffffffffffffffffffffffffffffffff167fddf252ad1be2c89b69c2b068fc378daa952ba7f163c4a11628f55a4df523b3ef846040518082815260200191505060405180910390a36001905092915050565b60056020528060005260406000206000915090505481565b600061173c82600260003373ffffffffffffffffffffffffffffffffffffffff1673ffffffffffffffffffffffffffffffffffffffff16815260200190815260200160002060008673ffffffffffffffffffffffffffffffffffffffff1673ffffffffffffffffffffffffffffffffffffffff168152602001908152602001600020546119ae90919063ffffffff16565b600260003373ffffffffffffffffffffffffffffffffffffffff1673ffffffffffffffffffffffffffffffffffffffff16815260200190815260200160002060008573ffffffffffffffffffffffffffffffffffffffff1673ffffffffffffffffffffffffffffffffffffffff168152602001908152602001600020819055508273ffffffffffffffffffffffffffffffffffffffff163373ffffffffffffffffffffffffffffffffffffffff167f8c5be1e5ebec7d5bd14f71427d1e84f3dd0314c0f7b2291e5b200ac8c7c3b925600260003373ffffffffffffffffffffffffffffffffffffffff1673ffffffffffffffffffffffffffffffffffffffff16815260200190815260200160002060008773ffffffffffffffffffffffffffffffffffffffff1673ffffffffffffffffffffffffffffffffffffffff168152602001908152602001600020546040518082815260200191505060405180910390a36001905092915050565b6004602052816000526040600020602052806000526040600020600091509150508060000154908060010154908060020160009054906101000a900462ffffff16908060030154908060040160009054906101000a900462ffffff16908060050154905086565b6000600260008473ffffffffffffffffffffffffffffffffffffffff1673ffffffffffffffffffffffffffffffffffffffff16815260200190815260200160002060008373ffffffffffffffffffffffffffffffffffffffff1673ffffffffffffffffffffffffffffffffffffffff16815260200190815260200160002054905092915050565b60008282111515156119a357fe5b818303905092915050565b60008082840190508381101515156119c257fe5b8091505092915050565b60008060006005620f42408562ffffff168115156119e657fe5b0462ffffff168115156119f557fe5b066005620f42408762ffffff16811515611a0b57fe5b0462ffffff16811515611a1a57fe5b060362ffffff1614611a2d576000611a30565b60015b60006005600a620186a08762ffffff16811515611a4957fe5b0462ffffff16811515611a5857fe5b0662ffffff16811515611a6757fe5b066005600a620186a08962ffffff16811515611a7f57fe5b0462ffffff16811515611a8e57fe5b0662ffffff16811515611a9d57fe5b060362ffffff1614611ab0576000611ab3565b60015b60006005600a6127108862ffffff16811515611acb57fe5b0462ffffff16811515611ada57fe5b0662ffffff16811515611ae957fe5b066005600a6127108a62ffffff16811515611b0057fe5b0462ffffff16811515611b0f57fe5b0662ffffff16811515611b1e57fe5b060362ffffff1614611b31576000611b34565b60015b60006005600a6103e88962ffffff16811515611b4c57fe5b0462ffffff16811515611b5b57fe5b0662ffffff16811515611b6a57fe5b066005600a6103e88b62ffffff16811515611b8157fe5b0462ffffff16811515611b9057fe5b0662ffffff16811515611b9f57fe5b060362ffffff1614611bb2576000611bb5565b60015b60006005600a60648a62ffffff16811515611bcc57fe5b0462ffffff16811515611bdb57fe5b0662ffffff16811515611bea57fe5b066005600a60648c62ffffff16811515611c0057fe5b0462ffffff16811515611c0f57fe5b0662ffffff16811515611c1e57fe5b060362ffffff1614611c31576000611c34565b60015b60006005600a808b62ffffff16811515611c4a57fe5b0462ffffff16811515611c5957fe5b0662ffffff16811515611c6857fe5b066005600a808d62ffffff16811515611c7d57fe5b0462ffffff16811515611c8c57fe5b0662ffffff16811515611c9b57fe5b060362ffffff1614611cae576000611cb1565b60015b60006005600a8b62ffffff16811515611cc657fe5b0662ffffff16811515611cd557fe5b066005600a8d62ffffff16811515611ce957fe5b0662ffffff16811515611cf857fe5b060362ffffff1614611d0b576000611d0e565b60015b01010101010160ff16905060028162ffffff161415611d305760039150611dab565b60038162ffffff161415611d475760089150611dab565b60048162ffffff161415611d5e5760229150611dab565b60058162ffffff161415611d755760e89150611dab565b60068162ffffff161415611d8d57610ae69150611dab565b60078162ffffff161415611da6576201312d9150611dab565b600091505b5092915050565b60c0604051908101604052806000815260200160008152602001600062ffffff16815260200160008152602001600062ffffff1681526020016000815250905600a165627a7a72305820f4479b2205607ce46d6d44a479d1970b6ce44a9e2a61bd21606abce8b1ed49e00029",
  "source": "pragma solidity ^0.4.18;\n\nlibrary SafeMath {\n    function mul(uint256 a, uint256 b) internal pure returns (uint256) {\n        if (a == 0) {\n          return 0;\n        }\n        uint256 c = a * b;\n        assert(c/a == b);\n        return c;\n    }\n\n    function div(uint256 a, uint256 b) internal pure returns (uint256) {\n        uint256 c = a/b;\n        return c;\n    }\n\n    function sub(uint256 a, uint256 b) internal pure returns (uint256) {\n        assert(b <= a);\n        return a - b;\n    }\n\n    function add(uint256 a, uint256 b) internal pure returns (uint256) {\n        uint256 c = a + b;\n        assert(c >= a);\n        return c;\n    }\n}\n\ncontract ERC20Basic {\n    function totalSupply() public view returns (uint256);\n    function balanceOf(address who) public view returns (uint256);\n    function transfer(address to, uint256 value) public returns (bool);\n    event Transfer(address indexed from, address indexed to, uint256 value);\n}\n\ncontract ERC20 is ERC20Basic {\n    function allowance(address owner, address spender) public view returns (uint256);\n    function transferFrom(address from, address to, uint256 value) public returns (bool);\n    function approve(address spender, uint256 value) public returns (bool);\n    event Approval(address indexed owner, address indexed spender, uint256 value);\n}\n\ncontract BasicToken is ERC20Basic {\n    using SafeMath for uint256;\n    mapping(address => uint256) balances;\n    uint256 totalSupply_;\n\n    function totalSupply() public view returns (uint256) {\n      return totalSupply_;\n    }\n\n    function transfer(address _to, uint256 _value) public returns (bool) {\n        require(_to != address(0));\n        require(_value <= balances[msg.sender]);\n        balances[msg.sender] = balances[msg.sender].sub(_value);\n        balances[_to] = balances[_to].add(_value);\n        Transfer(msg.sender, _to, _value);\n        return true;\n    }\n\n    function balanceOf(address _owner) public view returns (uint256 balance) {\n      return balances[_owner];\n    }\n}\n\ncontract StandardToken is ERC20, BasicToken {\n    mapping (address => mapping (address => uint256)) internal allowed;\n\n    function transferFrom(address _from, address _to, uint256 _value) public returns (bool) {\n        require(_to != address(0));\n        require(_value <= balances[_from]);\n        require(_value <= allowed[_from][msg.sender]);\n\n        balances[_from] = balances[_from].sub(_value);\n        balances[_to] = balances[_to].add(_value);\n        allowed[_from][msg.sender] = allowed[_from][msg.sender].sub(_value);\n        Transfer(_from, _to, _value);\n        return true;\n    }\n\n    function approve(address _spender, uint256 _value) public returns (bool) {\n        allowed[msg.sender][_spender] = _value;\n        Approval(msg.sender, _spender, _value);\n        return true;\n    }\n\n    function allowance(address _owner, address _spender) public view returns (uint256) {\n      return allowed[_owner][_spender];\n    }\n\n    function increaseApproval(address _spender, uint _addedValue) public returns (bool) {\n        allowed[msg.sender][_spender] = allowed[msg.sender][_spender].add(_addedValue);\n        Approval(msg.sender, _spender, allowed[msg.sender][_spender]);\n        return true;\n    }\n\n    function decreaseApproval(address _spender, uint _subtractedValue) public returns (bool) {\n        uint oldValue = allowed[msg.sender][_spender];\n        if (_subtractedValue > oldValue) {\n          allowed[msg.sender][_spender] = 0;\n        } else {\n          allowed[msg.sender][_spender] = oldValue.sub(_subtractedValue);\n        }\n        Approval(msg.sender, _spender, allowed[msg.sender][_spender]);\n        return true;\n    }\n}\n\ncontract FigLotto is StandardToken {\n\n    // constants\n    string public constant name = \"FigToken\";\n    string public constant symbol = \"FIG\";\n    uint8 public constant decimals = 2;\n    uint public constant INITIAL_SUPPLY = 2000000;\n\n    // constructor\n    function FigLotto() public {\n        totalSupply_ = INITIAL_SUPPLY;\n        balances[msg.sender] = INITIAL_SUPPLY;\n        Transfer(0x0, msg.sender, INITIAL_SUPPLY);\n        wallets[msg.sender] = Wallet(INITIAL_SUPPLY, \"admin\");\n    }\n\n    //\n    struct Wallet {\n        uint balance;\n        string name;\n    }\n    struct Bet {\n        int id;\n        uint value;\n        uint24 numbers;\n        uint blockNum;\n        uint24 drawingHash;\n        uint winnings;\n    }\n\n    mapping(address => Wallet) public wallets;\n    mapping(address => mapping(int => Bet)) public bets;\n    mapping(address => int) public playerbets;\n\n    function bet(uint _value, uint _numbers) public {\n        playerbets[msg.sender] ++;\n\n        bets[msg.sender][playerbets[msg.sender]] = Bet({\n            id: playerbets[msg.sender],\n            value: _value,\n            numbers: uint24(_numbers),\n            blockNum: uint(block.number),\n            drawingHash: 0,\n            winnings: 0\n        });\n\n        wallets[msg.sender].balance -= _value;\n\n    }\n\n\n    function checkWin(uint24 _numbers, uint24 _drawingHash) pure private returns (uint) {\n        uint24 matches =\n          (((_numbers % 10) % 5) - ((_drawingHash % 10) % 5) == 0 ? 1 : 0 ) +\n          ((((_numbers / 10) % 10) % 5) - (((_drawingHash / 10) % 10) % 5) == 0 ? 1 : 0 ) +\n          ((((_numbers / 100) % 10) % 5) - (((_drawingHash / 100) % 10) % 5) == 0 ? 1 : 0 ) +\n          ((((_numbers / 1000) % 10) % 5) - (((_drawingHash / 1000) % 10) % 5) == 0 ? 1 : 0 ) +\n          ((((_numbers / 10000) % 10) % 5) - (((_drawingHash / 10000) % 10) % 5) == 0 ? 1 : 0 ) +\n          ((((_numbers / 100000) % 10) % 5) - (((_drawingHash / 100000) % 10) % 5) == 0 ? 1 : 0 ) +\n          (((_numbers / 1000000) % 5) - ((_drawingHash / 1000000) % 5) == 0 ? 1 : 0 );\n\n        if(matches == 2) {return (3);}\n        if(matches == 3) {return (8);}\n        if(matches == 4) {return (34);}\n        if(matches == 5) {return (232);}\n        if(matches == 6) {return (2790);}\n        if(matches == 7) {return (78125);}\n        return (0);\n    }\n\n    function won(address _who) public {\n        for(uint8 i = 1; i <= playerbets[_who]; i++) {\n            Bet memory player = bets[_who][i];\n            uint256 blockHash = uint256(block.blockhash(player.blockNum + 1));\n\n            // make sure the first digit for comparison isn't a 0.\n            uint24 drawingHash =\n              ((blockHash % 100000000) / 1000000) % 10 == 0 ?\n              uint24(blockHash % 10000000) + 5000000 :\n              uint24(blockHash % 10000000);\n\n            uint winnings = checkWin(player.numbers, drawingHash) * player.value;\n\n            bets[_who][i].winnings = winnings;\n            bets[_who][i].drawingHash = drawingHash;\n            wallets[_who].balance += winnings;\n        }\n    }\n}\n",
  "sourcePath": "/Users/t1k1/Documents/Coding/fig-lotto/contracts/FigLotto.sol",
  "compiler": {
    "name": "solc",
    "version": "0.4.19+commit.c4cbbb05.Emscripten.clang"
  },
  "schemaVersion": "2.0.0",
  "updatedAt": "2018-03-31T18:10:47.895Z"
}